{
  "contractName": "EtherCommerce",
  "abi": [
    {
      "inputs": [
        {
          "internalType": "uint256",
          "name": "",
          "type": "uint256"
        }
      ],
      "name": "products",
      "outputs": [
        {
          "internalType": "uint256",
          "name": "id",
          "type": "uint256"
        },
        {
          "internalType": "address",
          "name": "buyer",
          "type": "address"
        },
        {
          "internalType": "address",
          "name": "seller",
          "type": "address"
        },
        {
          "internalType": "string",
          "name": "name",
          "type": "string"
        },
        {
          "internalType": "string",
          "name": "description",
          "type": "string"
        },
        {
          "internalType": "string",
          "name": "category",
          "type": "string"
        },
        {
          "internalType": "string",
          "name": "imageUrl",
          "type": "string"
        },
        {
          "internalType": "uint256",
          "name": "price",
          "type": "uint256"
        },
        {
          "internalType": "uint256",
          "name": "rating",
          "type": "uint256"
        }
      ],
      "stateMutability": "view",
      "type": "function",
      "constant": true
    },
    {
      "inputs": [
        {
          "internalType": "string",
          "name": "_name",
          "type": "string"
        },
        {
          "internalType": "string",
          "name": "_description",
          "type": "string"
        },
        {
          "internalType": "string",
          "name": "_category",
          "type": "string"
        },
        {
          "internalType": "string",
          "name": "_imageUrl",
          "type": "string"
        },
        {
          "internalType": "uint256",
          "name": "_price",
          "type": "uint256"
        },
        {
          "internalType": "uint256",
          "name": "_rating",
          "type": "uint256"
        }
      ],
      "name": "createNewProduct",
      "outputs": [],
      "stateMutability": "nonpayable",
      "type": "function"
    },
    {
      "inputs": [],
      "name": "getNumOfProducts",
      "outputs": [
        {
          "internalType": "uint256",
          "name": "",
          "type": "uint256"
        }
      ],
      "stateMutability": "view",
      "type": "function",
      "constant": true
    },
    {
      "inputs": [
        {
          "internalType": "uint256",
          "name": "_id",
          "type": "uint256"
        }
      ],
      "name": "purchaseProduct",
      "outputs": [],
      "stateMutability": "payable",
      "type": "function",
      "payable": true
    }
  ],
  "bytecode": "0x608060405234801561001057600080fd5b50611091806100206000396000f3fe60806040526004361061003f5760003560e01c80631ff3abb51461004457806338e76a031461006d5780637acc0b2014610089578063a23ccfe8146100ce575b600080fd5b34801561005057600080fd5b5061006b6004803603810190610066919061094b565b6100f9565b005b61008760048036038101906100829190610a48565b6102a9565b005b34801561009557600080fd5b506100b060048036038101906100ab9190610a48565b610504565b6040516100c599989796959493929190610b44565b60405180910390f35b3480156100da57600080fd5b506100e36107b2565b6040516100f09190610bed565b60405180910390f35b60006040518061012001604052806000548152602001600073ffffffffffffffffffffffffffffffffffffffff1681526020013373ffffffffffffffffffffffffffffffffffffffff1681526020018881526020018781526020018681526020018581526020018481526020018381525090508060016000805481526020019081526020016000206000820151816000015560208201518160010160006101000a81548173ffffffffffffffffffffffffffffffffffffffff021916908373ffffffffffffffffffffffffffffffffffffffff16021790555060408201518160020160006101000a81548173ffffffffffffffffffffffffffffffffffffffff021916908373ffffffffffffffffffffffffffffffffffffffff160217905550606082015181600301908161022e9190610e14565b5060808201518160040190816102449190610e14565b5060a082015181600501908161025a9190610e14565b5060c08201518160060190816102709190610e14565b5060e08201518160070155610100820151816008015590505060008081548092919061029b90610f15565b919050555050505050505050565b600060016000838152602001908152602001600020905080600701543414610306576040517f08c379a00000000000000000000000000000000000000000000000000000000081526004016102fd90610fa9565b60405180910390fd5b600073ffffffffffffffffffffffffffffffffffffffff168160020160009054906101000a900473ffffffffffffffffffffffffffffffffffffffff1673ffffffffffffffffffffffffffffffffffffffff160361036357600080fd5b600073ffffffffffffffffffffffffffffffffffffffff168160010160009054906101000a900473ffffffffffffffffffffffffffffffffffffffff1673ffffffffffffffffffffffffffffffffffffffff16146103c057600080fd5b8060020160009054906101000a900473ffffffffffffffffffffffffffffffffffffffff1673ffffffffffffffffffffffffffffffffffffffff163373ffffffffffffffffffffffffffffffffffffffff1603610452576040517f08c379a00000000000000000000000000000000000000000000000000000000081526004016104499061103b565b60405180910390fd5b338160010160006101000a81548173ffffffffffffffffffffffffffffffffffffffff021916908373ffffffffffffffffffffffffffffffffffffffff1602179055508060020160009054906101000a900473ffffffffffffffffffffffffffffffffffffffff1673ffffffffffffffffffffffffffffffffffffffff166108fc349081150290604051600060405180830381858888f193505050501580156104ff573d6000803e3d6000fd5b505050565b60016020528060005260406000206000915090508060000154908060010160009054906101000a900473ffffffffffffffffffffffffffffffffffffffff16908060020160009054906101000a900473ffffffffffffffffffffffffffffffffffffffff169080600301805461057990610c37565b80601f01602080910402602001604051908101604052809291908181526020018280546105a590610c37565b80156105f25780601f106105c7576101008083540402835291602001916105f2565b820191906000526020600020905b8154815290600101906020018083116105d557829003601f168201915b50505050509080600401805461060790610c37565b80601f016020809104026020016040519081016040528092919081815260200182805461063390610c37565b80156106805780601f1061065557610100808354040283529160200191610680565b820191906000526020600020905b81548152906001019060200180831161066357829003601f168201915b50505050509080600501805461069590610c37565b80601f01602080910402602001604051908101604052809291908181526020018280546106c190610c37565b801561070e5780601f106106e35761010080835404028352916020019161070e565b820191906000526020600020905b8154815290600101906020018083116106f157829003601f168201915b50505050509080600601805461072390610c37565b80601f016020809104026020016040519081016040528092919081815260200182805461074f90610c37565b801561079c5780601f106107715761010080835404028352916020019161079c565b820191906000526020600020905b81548152906001019060200180831161077f57829003601f168201915b5050505050908060070154908060080154905089565b60008054905090565b6000604051905090565b600080fd5b600080fd5b600080fd5b600080fd5b6000601f19601f8301169050919050565b7f4e487b7100000000000000000000000000000000000000000000000000000000600052604160045260246000fd5b610822826107d9565b810181811067ffffffffffffffff82111715610841576108406107ea565b5b80604052505050565b60006108546107bb565b90506108608282610819565b919050565b600067ffffffffffffffff8211156108805761087f6107ea565b5b610889826107d9565b9050602081019050919050565b82818337600083830152505050565b60006108b86108b384610865565b61084a565b9050828152602081018484840111156108d4576108d36107d4565b5b6108df848285610896565b509392505050565b600082601f8301126108fc576108fb6107cf565b5b813561090c8482602086016108a5565b91505092915050565b6000819050919050565b61092881610915565b811461093357600080fd5b50565b6000813590506109458161091f565b92915050565b60008060008060008060c08789031215610968576109676107c5565b5b600087013567ffffffffffffffff811115610986576109856107ca565b5b61099289828a016108e7565b965050602087013567ffffffffffffffff8111156109b3576109b26107ca565b5b6109bf89828a016108e7565b955050604087013567ffffffffffffffff8111156109e0576109df6107ca565b5b6109ec89828a016108e7565b945050606087013567ffffffffffffffff811115610a0d57610a0c6107ca565b5b610a1989828a016108e7565b9350506080610a2a89828a01610936565b92505060a0610a3b89828a01610936565b9150509295509295509295565b600060208284031215610a5e57610a5d6107c5565b5b6000610a6c84828501610936565b91505092915050565b610a7e81610915565b82525050565b600073ffffffffffffffffffffffffffffffffffffffff82169050919050565b6000610aaf82610a84565b9050919050565b610abf81610aa4565b82525050565b600081519050919050565b600082825260208201905092915050565b60005b83811015610aff578082015181840152602081019050610ae4565b60008484015250505050565b6000610b1682610ac5565b610b208185610ad0565b9350610b30818560208601610ae1565b610b39816107d9565b840191505092915050565b600061012082019050610b5a600083018c610a75565b610b67602083018b610ab6565b610b74604083018a610ab6565b8181036060830152610b868189610b0b565b90508181036080830152610b9a8188610b0b565b905081810360a0830152610bae8187610b0b565b905081810360c0830152610bc28186610b0b565b9050610bd160e0830185610a75565b610bdf610100830184610a75565b9a9950505050505050505050565b6000602082019050610c026000830184610a75565b92915050565b7f4e487b7100000000000000000000000000000000000000000000000000000000600052602260045260246000fd5b60006002820490506001821680610c4f57607f821691505b602082108103610c6257610c61610c08565b5b50919050565b60008190508160005260206000209050919050565b60006020601f8301049050919050565b600082821b905092915050565b600060088302610cca7fffffffffffffffffffffffffffffffffffffffffffffffffffffffffffffffff82610c8d565b610cd48683610c8d565b95508019841693508086168417925050509392505050565b6000819050919050565b6000610d11610d0c610d0784610915565b610cec565b610915565b9050919050565b6000819050919050565b610d2b83610cf6565b610d3f610d3782610d18565b848454610c9a565b825550505050565b600090565b610d54610d47565b610d5f818484610d22565b505050565b5b81811015610d8357610d78600082610d4c565b600181019050610d65565b5050565b601f821115610dc857610d9981610c68565b610da284610c7d565b81016020851015610db1578190505b610dc5610dbd85610c7d565b830182610d64565b50505b505050565b600082821c905092915050565b6000610deb60001984600802610dcd565b1980831691505092915050565b6000610e048383610dda565b9150826002028217905092915050565b610e1d82610ac5565b67ffffffffffffffff811115610e3657610e356107ea565b5b610e408254610c37565b610e4b828285610d87565b600060209050601f831160018114610e7e5760008415610e6c578287015190505b610e768582610df8565b865550610ede565b601f198416610e8c86610c68565b60005b82811015610eb457848901518255600182019150602085019450602081019050610e8f565b86831015610ed15784890151610ecd601f891682610dda565b8355505b6001600288020188555050505b505050505050565b7f4e487b7100000000000000000000000000000000000000000000000000000000600052601160045260246000fd5b6000610f2082610915565b91507fffffffffffffffffffffffffffffffffffffffffffffffffffffffffffffffff8203610f5257610f51610ee6565b5b600182019050919050565b7f596f75206861766520696e76616c696420616d6f756e74000000000000000000600082015250565b6000610f93601783610ad0565b9150610f9e82610f5d565b602082019050919050565b60006020820190508181036000830152610fc281610f86565b9050919050565b7f596f752063616e6e6f742062757920796f7572206f776e65642070726f64756360008201527f7400000000000000000000000000000000000000000000000000000000000000602082015250565b6000611025602183610ad0565b915061103082610fc9565b604082019050919050565b6000602082019050818103600083015261105481611018565b905091905056fea2646970667358221220f7f8e1faf9e4aa3dad0ba3ca9cc52358c9beca64002824801fb2427be93f855e64736f6c63430008100033",
  "immutableReferences": {},
  "source": "// SPDX-License-Identifier: MIT\npragma solidity ^0.8.16;\n\ncontract EtherCommerce {\n    struct Product {\n        uint256 id;\n        address buyer;\n        address seller;\n        string name;\n        string description;\n        string category;\n        string imageUrl;\n        uint256 price;\n        uint256 rating;\n    }\n\n    // This is equal to 0\n    uint256 productCounter;\n\n    mapping(uint256 => Product) public products;\n\n    function createNewProduct(\n        string memory _name, \n        string memory _description, \n        string memory _category, \n        string memory _imageUrl,\n        uint256 _price,\n        uint256 _rating\n        ) public {\n            Product memory newProduct = Product({\n                id: productCounter,\n                buyer: address(0),\n                seller: msg.sender,\n                name: _name,\n                description: _description,\n                category: _category,\n                imageUrl: _imageUrl,\n                price: _price,\n                rating:_rating\n            });\n\n            // products[0] = newProduct => first product\n            // indexes are always started with 0\n            products[productCounter] = newProduct;\n            \n            // Increment +1\n            productCounter++;\n        }\n\n        function getNumOfProducts() public  view returns (uint256) {\n            return productCounter;\n        }\n\n        function purchaseProduct(uint256 _id) public payable {\n            // Finding the product based on _id index\n            Product storage product = products[_id];\n\n            // wallet address money should be equal to product price, else You have invalid amount\n            require(msg.value == product.price, \"You have invalid amount\");\n\n            // Seller and buyer wallet address shouldn't be equal to each other\n            require(product.seller != address(0));\n\n            // Buyer and Buyer wallet address should be same\n            require(product.buyer == address(0));\n\n            // Seller and Seller wallet address should not be same when buying their own product\n            require(msg.sender != product.seller, \"You cannot buy your owned product\");\n\n            // product.buyer = any wallet address\n            product.buyer = msg.sender;\n\n            // Paying a seller to crypto based on product price\n            payable(product.seller).transfer(msg.value);\n        }\n}",
  "sourcePath": "c:\\Users\\memo_\\OneDrive\\Masast\\Ether-Commerce\\contracts\\EtherCommerce.sol",
  "compiler": {
    "name": "solc",
    "version": "0.8.16+commit.07a7930e.Emscripten.clang"
  },
  "schemaVersion": "3.4.9",
  "updatedAt": "2023-05-18T19:25:50.182Z",
  "networkType": "ethereum",
  "devdoc": {
    "kind": "dev",
    "methods": {},
    "version": 1
  },
  "userdoc": {
    "kind": "user",
    "methods": {},
    "version": 1
  }
}